{
  "_format": "hh-sol-artifact-1",
  "contractName": "Lottery",
  "sourceName": "contracts/Lottery.sol",
  "abi": [
    {
      "inputs": [
        {
          "internalType": "uint256",
          "name": "_betFee",
          "type": "uint256"
        },
        {
          "internalType": "uint256",
          "name": "_betPrice",
          "type": "uint256"
        }
      ],
      "stateMutability": "nonpayable",
      "type": "constructor"
    },
    {
      "anonymous": false,
      "inputs": [
        {
          "indexed": true,
          "internalType": "address",
          "name": "previousOwner",
          "type": "address"
        },
        {
          "indexed": true,
          "internalType": "address",
          "name": "newOwner",
          "type": "address"
        }
      ],
      "name": "OwnershipTransferred",
      "type": "event"
    },
    {
      "inputs": [],
      "name": "betClosingTime",
      "outputs": [
        {
          "internalType": "uint256",
          "name": "",
          "type": "uint256"
        }
      ],
      "stateMutability": "view",
      "type": "function"
    },
    {
      "inputs": [],
      "name": "betFee",
      "outputs": [
        {
          "internalType": "uint256",
          "name": "",
          "type": "uint256"
        }
      ],
      "stateMutability": "view",
      "type": "function"
    },
    {
      "inputs": [],
      "name": "betPrice",
      "outputs": [
        {
          "internalType": "uint256",
          "name": "",
          "type": "uint256"
        }
      ],
      "stateMutability": "view",
      "type": "function"
    },
    {
      "inputs": [],
      "name": "betsOpen",
      "outputs": [
        {
          "internalType": "bool",
          "name": "",
          "type": "bool"
        }
      ],
      "stateMutability": "view",
      "type": "function"
    },
    {
      "inputs": [
        {
          "internalType": "uint256",
          "name": "closingTime",
          "type": "uint256"
        }
      ],
      "name": "openBets",
      "outputs": [],
      "stateMutability": "nonpayable",
      "type": "function"
    },
    {
      "inputs": [],
      "name": "owner",
      "outputs": [
        {
          "internalType": "address",
          "name": "",
          "type": "address"
        }
      ],
      "stateMutability": "view",
      "type": "function"
    },
    {
      "inputs": [],
      "name": "renounceOwnership",
      "outputs": [],
      "stateMutability": "nonpayable",
      "type": "function"
    },
    {
      "inputs": [
        {
          "internalType": "address",
          "name": "newOwner",
          "type": "address"
        }
      ],
      "name": "transferOwnership",
      "outputs": [],
      "stateMutability": "nonpayable",
      "type": "function"
    }
  ],
  "bytecode": "0x608060405234801561001057600080fd5b506040516109cc3803806109cc8339818101604052810190610032919061016a565b61004e61004361006360201b60201c565b61006b60201b60201c565b816002819055508060038190555050506101aa565b600033905090565b60008060009054906101000a900473ffffffffffffffffffffffffffffffffffffffff169050816000806101000a81548173ffffffffffffffffffffffffffffffffffffffff021916908373ffffffffffffffffffffffffffffffffffffffff1602179055508173ffffffffffffffffffffffffffffffffffffffff168173ffffffffffffffffffffffffffffffffffffffff167f8be0079c531659141344cd1fd0a4f28419497f9722a3daafe3b4186f6b6457e060405160405180910390a35050565b600080fd5b6000819050919050565b61014781610134565b811461015257600080fd5b50565b6000815190506101648161013e565b92915050565b600080604083850312156101815761018061012f565b5b600061018f85828601610155565b92505060206101a085828601610155565b9150509250929050565b610813806101b96000396000f3fe608060405234801561001057600080fd5b50600436106100885760003560e01c8063cfd8a1751161005b578063cfd8a175146100ef578063d1b258ff1461010d578063d8f644521461012b578063f2fde38b1461014957610088565b8063715018a61461008d578063841e6ce9146100975780638da5cb5b146100b5578063990a49f5146100d3575b600080fd5b610095610165565b005b61009f610179565b6040516100ac919061046c565b60405180910390f35b6100bd61017f565b6040516100ca91906104c8565b60405180910390f35b6100ed60048036038101906100e89190610514565b6101a8565b005b6100f7610267565b604051610104919061046c565b60405180910390f35b61011561026d565b604051610122919061055c565b60405180910390f35b610133610280565b604051610140919061046c565b60405180910390f35b610163600480360381019061015e91906105a3565b610286565b005b61016d610309565b6101776000610387565b565b60025481565b60008060009054906101000a900473ffffffffffffffffffffffffffffffffffffffff16905090565b6101b0610309565b600460009054906101000a900460ff1615610200576040517f08c379a00000000000000000000000000000000000000000000000000000000081526004016101f79061062d565b60405180910390fd5b428111610242576040517f08c379a0000000000000000000000000000000000000000000000000000000008152600401610239906106bf565b60405180910390fd5b806001819055506001600460006101000a81548160ff02191690831515021790555050565b60035481565b600460009054906101000a900460ff1681565b60015481565b61028e610309565b600073ffffffffffffffffffffffffffffffffffffffff168173ffffffffffffffffffffffffffffffffffffffff16036102fd576040517f08c379a00000000000000000000000000000000000000000000000000000000081526004016102f490610751565b60405180910390fd5b61030681610387565b50565b61031161044b565b73ffffffffffffffffffffffffffffffffffffffff1661032f61017f565b73ffffffffffffffffffffffffffffffffffffffff1614610385576040517f08c379a000000000000000000000000000000000000000000000000000000000815260040161037c906107bd565b60405180910390fd5b565b60008060009054906101000a900473ffffffffffffffffffffffffffffffffffffffff169050816000806101000a81548173ffffffffffffffffffffffffffffffffffffffff021916908373ffffffffffffffffffffffffffffffffffffffff1602179055508173ffffffffffffffffffffffffffffffffffffffff168173ffffffffffffffffffffffffffffffffffffffff167f8be0079c531659141344cd1fd0a4f28419497f9722a3daafe3b4186f6b6457e060405160405180910390a35050565b600033905090565b6000819050919050565b61046681610453565b82525050565b6000602082019050610481600083018461045d565b92915050565b600073ffffffffffffffffffffffffffffffffffffffff82169050919050565b60006104b282610487565b9050919050565b6104c2816104a7565b82525050565b60006020820190506104dd60008301846104b9565b92915050565b600080fd5b6104f181610453565b81146104fc57600080fd5b50565b60008135905061050e816104e8565b92915050565b60006020828403121561052a576105296104e3565b5b6000610538848285016104ff565b91505092915050565b60008115159050919050565b61055681610541565b82525050565b6000602082019050610571600083018461054d565b92915050565b610580816104a7565b811461058b57600080fd5b50565b60008135905061059d81610577565b92915050565b6000602082840312156105b9576105b86104e3565b5b60006105c78482850161058e565b91505092915050565b600082825260208201905092915050565b7f4c6f7474657279206973206f70656e0000000000000000000000000000000000600082015250565b6000610617600f836105d0565b9150610622826105e1565b602082019050919050565b600060208201905081810360008301526106468161060a565b9050919050565b7f436c6f73696e672074696d65206d75737420626520696e20746865206675747560008201527f7265000000000000000000000000000000000000000000000000000000000000602082015250565b60006106a96022836105d0565b91506106b48261064d565b604082019050919050565b600060208201905081810360008301526106d88161069c565b9050919050565b7f4f776e61626c653a206e6577206f776e657220697320746865207a65726f206160008201527f6464726573730000000000000000000000000000000000000000000000000000602082015250565b600061073b6026836105d0565b9150610746826106df565b604082019050919050565b6000602082019050818103600083015261076a8161072e565b9050919050565b7f4f776e61626c653a2063616c6c6572206973206e6f7420746865206f776e6572600082015250565b60006107a76020836105d0565b91506107b282610771565b602082019050919050565b600060208201905081810360008301526107d68161079a565b905091905056fea26469706673582212209b182331fbf7df5c6022810d9b2b6357a3b81728e9ec15a68856388677a5b19364736f6c63430008110033",
  "linkReferences": {},
  "deployedLinkReferences": {}
}